{
  "_format": "hh-sol-artifact-1",
  "contractName": "HackerThon",
  "sourceName": "contracts/HackerThon.sol",
  "abi": [
    {
      "inputs": [],
      "stateMutability": "nonpayable",
      "type": "constructor"
    },
    {
      "anonymous": false,
      "inputs": [
        {
          "indexed": false,
          "internalType": "address",
          "name": "_from",
          "type": "address"
        },
        {
          "indexed": false,
          "internalType": "uint256",
          "name": "_amount",
          "type": "uint256"
        }
      ],
      "name": "TransferReceived",
      "type": "event"
    },
    {
      "anonymous": false,
      "inputs": [
        {
          "indexed": false,
          "internalType": "address",
          "name": "_from",
          "type": "address"
        },
        {
          "indexed": false,
          "internalType": "address",
          "name": "_destAddr",
          "type": "address"
        },
        {
          "indexed": false,
          "internalType": "uint256",
          "name": "_amount",
          "type": "uint256"
        }
      ],
      "name": "TransferSent",
      "type": "event"
    },
    {
      "inputs": [],
      "name": "balance",
      "outputs": [
        {
          "internalType": "uint256",
          "name": "",
          "type": "uint256"
        }
      ],
      "stateMutability": "view",
      "type": "function"
    },
    {
      "inputs": [],
      "name": "owner",
      "outputs": [
        {
          "internalType": "address",
          "name": "",
          "type": "address"
        }
      ],
      "stateMutability": "view",
      "type": "function"
    },
    {
      "inputs": [
        {
          "internalType": "contract IERC20",
          "name": "token",
          "type": "address"
        },
        {
          "internalType": "uint256",
          "name": "amount",
          "type": "uint256"
        }
      ],
      "name": "transferCyclesERC20",
      "outputs": [],
      "stateMutability": "nonpayable",
      "type": "function"
    },
    {
      "inputs": [
        {
          "internalType": "contract IERC20",
          "name": "token",
          "type": "address"
        },
        {
          "internalType": "uint256",
          "name": "amount",
          "type": "uint256"
        }
      ],
      "name": "transferLaptopERC20",
      "outputs": [],
      "stateMutability": "nonpayable",
      "type": "function"
    },
    {
      "inputs": [
        {
          "internalType": "contract IERC20",
          "name": "token",
          "type": "address"
        },
        {
          "internalType": "uint256",
          "name": "amount",
          "type": "uint256"
        }
      ],
      "name": "transferSubsidyERC20",
      "outputs": [],
      "stateMutability": "nonpayable",
      "type": "function"
    },
    {
      "inputs": [
        {
          "internalType": "uint256",
          "name": "amount",
          "type": "uint256"
        },
        {
          "internalType": "address payable",
          "name": "destAddr",
          "type": "address"
        }
      ],
      "name": "withdraw",
      "outputs": [],
      "stateMutability": "nonpayable",
      "type": "function"
    },
    {
      "stateMutability": "payable",
      "type": "receive"
    }
  ],
  "bytecode": "0x608060405234801561001057600080fd5b50336000806101000a81548173ffffffffffffffffffffffffffffffffffffffff021916908373ffffffffffffffffffffffffffffffffffffffff1602179055506111ca806100606000396000f3fe6080604052600436106100585760003560e01c8062f714ce146100b65780630a82681b146100df5780638da5cb5b14610108578063aa96355a14610133578063b69ef8a81461015c578063d8a6012f14610187576100b1565b366100b157346001600082825461006f9190610eda565b925050819055507ff1b03f708b9c39f453fe3f0cef84164c7d6f7df836df0796e1e9c2bce6ee397e33346040516100a7929190610e05565b60405180910390a1005b600080fd5b3480156100c257600080fd5b506100dd60048036038101906100d89190610c83565b6101b0565b005b3480156100eb57600080fd5b5061010660048036038101906101019190610c16565b610322565b005b34801561011457600080fd5b5061011d6105de565b60405161012a9190610d7c565b60405180910390f35b34801561013f57600080fd5b5061015a60048036038101906101559190610c16565b610602565b005b34801561016857600080fd5b506101716108be565b60405161017e9190610eae565b60405180910390f35b34801561019357600080fd5b506101ae60048036038101906101a99190610c16565b6108c4565b005b60008054906101000a900473ffffffffffffffffffffffffffffffffffffffff1673ffffffffffffffffffffffffffffffffffffffff163373ffffffffffffffffffffffffffffffffffffffff161461023e576040517f08c379a000000000000000000000000000000000000000000000000000000000815260040161023590610e2e565b60405180910390fd5b600154821115610283576040517f08c379a000000000000000000000000000000000000000000000000000000000815260040161027a90610e4e565b60405180910390fd5b8073ffffffffffffffffffffffffffffffffffffffff166108fc839081150290604051600060405180830381858888f193505050501580156102c9573d6000803e3d6000fd5b5081600160008282546102dc9190610f8a565b925050819055507ffda3a3e0e1479b43cb1c701f7576187f4c4ad80768d627387e00184302f7d88e33828460405161031693929190610d97565b60405180910390a15050565b60008273ffffffffffffffffffffffffffffffffffffffff166370a08231306040518263ffffffff1660e01b815260040161035d9190610d7c565b60206040518083038186803b15801561037557600080fd5b505afa158015610389573d6000803e3d6000fd5b505050506040513d601f19601f820116820180604052508101906103ad9190610c56565b905080670de0b6b3a7640000836103c49190610f30565b1115610405576040517f08c379a00000000000000000000000000000000000000000000000000000000081526004016103fc90610e8e565b60405180910390fd5b600260003373ffffffffffffffffffffffffffffffffffffffff1673ffffffffffffffffffffffffffffffffffffffff16815260200190815260200160002060009054906101000a900460ff1615610492576040517f08c379a000000000000000000000000000000000000000000000000000000000815260040161048990610e6e565b60405180910390fd5b6001600260003373ffffffffffffffffffffffffffffffffffffffff1673ffffffffffffffffffffffffffffffffffffffff16815260200190815260200160002060006101000a81548160ff0219169083151502179055508273ffffffffffffffffffffffffffffffffffffffff1663a9059cbb33670de0b6b3a76400008561051b9190610f30565b6040518363ffffffff1660e01b8152600401610538929190610e05565b602060405180830381600087803b15801561055257600080fd5b505af1158015610566573d6000803e3d6000fd5b505050506040513d601f19601f8201168201806040525081019061058a9190610be9565b507ffda3a3e0e1479b43cb1c701f7576187f4c4ad80768d627387e00184302f7d88e3333670de0b6b3a7640000856105c29190610f30565b6040516105d193929190610dce565b60405180910390a1505050565b60008054906101000a900473ffffffffffffffffffffffffffffffffffffffff1681565b60008273ffffffffffffffffffffffffffffffffffffffff166370a08231306040518263ffffffff1660e01b815260040161063d9190610d7c565b60206040518083038186803b15801561065557600080fd5b505afa158015610669573d6000803e3d6000fd5b505050506040513d601f19601f8201168201806040525081019061068d9190610c56565b905080670de0b6b3a7640000836106a49190610f30565b11156106e5576040517f08c379a00000000000000000000000000000000000000000000000000000000081526004016106dc90610e8e565b60405180910390fd5b600260003373ffffffffffffffffffffffffffffffffffffffff1673ffffffffffffffffffffffffffffffffffffffff16815260200190815260200160002060009054906101000a900460ff1615610772576040517f08c379a000000000000000000000000000000000000000000000000000000000815260040161076990610e6e565b60405180910390fd5b6001600260003373ffffffffffffffffffffffffffffffffffffffff1673ffffffffffffffffffffffffffffffffffffffff16815260200190815260200160002060006101000a81548160ff0219169083151502179055508273ffffffffffffffffffffffffffffffffffffffff1663a9059cbb33670de0b6b3a7640000856107fb9190610f30565b6040518363ffffffff1660e01b8152600401610818929190610e05565b602060405180830381600087803b15801561083257600080fd5b505af1158015610846573d6000803e3d6000fd5b505050506040513d601f19601f8201168201806040525081019061086a9190610be9565b507ffda3a3e0e1479b43cb1c701f7576187f4c4ad80768d627387e00184302f7d88e3333670de0b6b3a7640000856108a29190610f30565b6040516108b193929190610dce565b60405180910390a1505050565b60015481565b60008273ffffffffffffffffffffffffffffffffffffffff166370a08231306040518263ffffffff1660e01b81526004016108ff9190610d7c565b60206040518083038186803b15801561091757600080fd5b505afa15801561092b573d6000803e3d6000fd5b505050506040513d601f19601f8201168201806040525081019061094f9190610c56565b905080670de0b6b3a7640000836109669190610f30565b11156109a7576040517f08c379a000000000000000000000000000000000000000000000000000000000815260040161099e90610e8e565b60405180910390fd5b600260003373ffffffffffffffffffffffffffffffffffffffff1673ffffffffffffffffffffffffffffffffffffffff16815260200190815260200160002060009054906101000a900460ff1615610a34576040517f08c379a0000000000000000000000000000000000000000000000000000000008152600401610a2b90610e6e565b60405180910390fd5b6001600260003373ffffffffffffffffffffffffffffffffffffffff1673ffffffffffffffffffffffffffffffffffffffff16815260200190815260200160002060006101000a81548160ff0219169083151502179055508273ffffffffffffffffffffffffffffffffffffffff1663a9059cbb33670de0b6b3a764000085610abd9190610f30565b6040518363ffffffff1660e01b8152600401610ada929190610e05565b602060405180830381600087803b158015610af457600080fd5b505af1158015610b08573d6000803e3d6000fd5b505050506040513d601f19601f82011682018060405250810190610b2c9190610be9565b507ffda3a3e0e1479b43cb1c701f7576187f4c4ad80768d627387e00184302f7d88e3333670de0b6b3a764000085610b649190610f30565b604051610b7393929190610dce565b60405180910390a1505050565b600081359050610b8f81611138565b92915050565b600081519050610ba48161114f565b92915050565b600081359050610bb981611166565b92915050565b600081359050610bce8161117d565b92915050565b600081519050610be38161117d565b92915050565b600060208284031215610bff57610bfe61108f565b5b6000610c0d84828501610b95565b91505092915050565b60008060408385031215610c2d57610c2c61108f565b5b6000610c3b85828601610baa565b9250506020610c4c85828601610bbf565b9150509250929050565b600060208284031215610c6c57610c6b61108f565b5b6000610c7a84828501610bd4565b91505092915050565b60008060408385031215610c9a57610c9961108f565b5b6000610ca885828601610bbf565b9250506020610cb985828601610b80565b9150509250929050565b610ccc8161102a565b82525050565b610cdb81610fbe565b82525050565b6000610cee601d83610ec9565b9150610cf982611094565b602082019050919050565b6000610d11601283610ec9565b9150610d1c826110bd565b602082019050919050565b6000610d34601883610ec9565b9150610d3f826110e6565b602082019050919050565b6000610d57600e83610ec9565b9150610d628261110f565b602082019050919050565b610d7681611020565b82525050565b6000602082019050610d916000830184610cd2565b92915050565b6000606082019050610dac6000830186610cd2565b610db96020830185610cc3565b610dc66040830184610d6d565b949350505050565b6000606082019050610de36000830186610cd2565b610df06020830185610cd2565b610dfd6040830184610d6d565b949350505050565b6000604082019050610e1a6000830185610cd2565b610e276020830184610d6d565b9392505050565b60006020820190508181036000830152610e4781610ce1565b9050919050565b60006020820190508181036000830152610e6781610d04565b9050919050565b60006020820190508181036000830152610e8781610d27565b9050919050565b60006020820190508181036000830152610ea781610d4a565b9050919050565b6000602082019050610ec36000830184610d6d565b92915050565b600082825260208201905092915050565b6000610ee582611020565b9150610ef083611020565b9250827fffffffffffffffffffffffffffffffffffffffffffffffffffffffffffffffff03821115610f2557610f24611060565b5b828201905092915050565b6000610f3b82611020565b9150610f4683611020565b9250817fffffffffffffffffffffffffffffffffffffffffffffffffffffffffffffffff0483118215151615610f7f57610f7e611060565b5b828202905092915050565b6000610f9582611020565b9150610fa083611020565b925082821015610fb357610fb2611060565b5b828203905092915050565b6000610fc982611000565b9050919050565b6000610fdb82611000565b9050919050565b60008115159050919050565b6000610ff982610fbe565b9050919050565b600073ffffffffffffffffffffffffffffffffffffffff82169050919050565b6000819050919050565b60006110358261103c565b9050919050565b60006110478261104e565b9050919050565b600061105982611000565b9050919050565b7f4e487b7100000000000000000000000000000000000000000000000000000000600052601160045260246000fd5b600080fd5b7f4f6e6c79206f776e65722063616e2077697468647261772066756e6473000000600082015250565b7f496e73756666696369656e742066756e64730000000000000000000000000000600082015250565b7f7573657220616c726561647920626c61636b6c69737465640000000000000000600082015250565b7f62616c616e6365206973206c6f77000000000000000000000000000000000000600082015250565b61114181610fd0565b811461114c57600080fd5b50565b61115881610fe2565b811461116357600080fd5b50565b61116f81610fee565b811461117a57600080fd5b50565b61118681611020565b811461119157600080fd5b5056fea2646970667358221220fa80d87a3a5812abe7109954a470d2401bdb10f0f658039ff177167004679da364736f6c63430008070033",
  "linkReferences": {},
  "deployedLinkReferences": {}
}